:0300000002092CC6
:0C092C00787FE4F6D8FD7581170209738E
:100A4600000102030405060708090A0B0C0D0E0F28
:100A35004100FE004300030100FF430000010801DF
:10089400900200EBF0A3EAF0A3E9F0900003E0FB80
:1008A400A3E0FAA3E0F9EF120860900003E0FBA3D1
:1008B400E0FAA3E0F9900001E4120872900203E068
:1008C400FEA3E0FF4E6047900200E0FBA3E0FAA322
:1008D400E04A4B6039900003E0FBA3E0FAA3E02474
:1008E40002F9E43AA801FCAD03900200E0FBA3E0A6
:1008F400FAA3E0F91207F4900204E0FF900003E089
:10090400FBA3E0FAA3E0F9900001EF120872900053
:1009140003E0FBA3E0FAA3E0F990000112083324FA
:0809240002FF120A65020A61DC
:0E05A2009001FFEFF0A3EBF0A3EAF0A3E9F065
:1005B000E4FD90020DF0900206E0FFD394F8503B6A
:1005C000EFC3940150030206D0900206E0FC24071A
:1005D000FFE433FEEF7803CEA2E713CE13D8F8334F
:1005E000333354F8FF90020DF090020AE0FBA3E0D1
:1005F000FAA3E0F912081AC39F50030206D0900232
:1006000003E0F9A3E0FAA3E0900229C9F0A3EAF01D
:10061000A3E9F0A3ECF07B017A007906120A20AD81
:1006200007ED60030207039001FFE014603324FD2F
:100630006054146076240560030206D0900206E040
:10064000FD90022A7401F0A37400F0A37406F090E8
:100650000200E0FBA3E0FAA3E0F91209D2AD0780A3
:1006600074900206E0FD90022A7401F0A37400F079
:10067000A37406F0900200E0FBA3E0FAA3E0F912F5
:1006800009B8AD07804F900206E0FD90022A740180
:10069000F0A37400F0A37406F0900200E0FBA3E066
:1006A000FAA3E0F9120A06AD07802A900206E0FDDF
:1006B00090022A7401F0A37400F0A37406F0900273
:1006C00000E0FBA3E0FAA3E0F91209ECAD07800516
:1006D0007E007F8122ED600280299002297401F062
:1006E000A37400F0A37406F090020DE090022CF0C9
:1006F000900207E0FBA3E0FAA3E0F9120A20AD079D
:10070000ED60099000FEF07E007F802290020DE0F7
:10071000FF90020AE0FBA3E0FAA3E0F9EF12086001
:03072000E4FEFFF5
:0107230022B3
:0E0003009001FFEFF0A3EBF0A3EAF0A3E9F009
:10001100E4900210F0A3F0900222F0A3F0A3F0A369
:10002100F0900209E0FD2407FFE433FEEF7803CEF0
:10003100A2E713CE13D8F833333354F8FF900211EB
:10004100F090020DE0FBA3E0FAA3E0F912081AC355
:100051009F50057E007F8122900206E0F9A3E0FA1D
:10006100A3E0900229C9F0A3EAF0A3E9F0A3EDF01F
:100071007B017A007906120A20900210EFF06003EA
:10008100020380900203E0F9A3E0FAA3E0900229C1
:10009100C9F0A3EAF0A3E9F0A37408F07B017A02A6
:1000A1007912120A20900210EFF06003020380908F
:1000B1000209E05407FF6037E02406F582E43400CA
:1000C100F583E4F0EFD394014025900209E0FF2489
:1000D10007F9E43400FA7B01EF54071490022AF087
:1000E100E4FD120A56900210EFF06003020380E46F
:1000F100900222F0A3F0900211E0131313541FFF9A
:10010100C3900223E09F900222E094004003020387
:100111004C9001FFE0FF64026008EF640660030297
:100121000217E4900224F0A3F0900225E0FF900270
:1001310023E075F008A42FF582E435F0F583E5821C
:100141002406F582E5833400F583C083C082E0FE96
:1001510074122FF582E43402F583E0FFEE6FD08252
:10016100D083F0900225E004F07006900224E004B0
:10017100F0900224E07004A3E0640870AC9001FFE9
:10018100E0B40235900222E0FEA3E07803C333CE4F
:1001910033CED8F92406F974003EFA90022A74018C
:1001A100F0A3EAF0A3E9F0900200E0FBA3E0FAA3D8
:1001B100E0F97D081209D28033900222E0FEA3E02B
:1001C1007803C333CE33CED8F92406F974003EFA4E
:1001D10090022A7401F0A3EAF0A3E9F0900200E092
:1001E100FBA3E0FAA3E0F97D08120A06900210EFE2
:1001F100F0900222E0FEA3E07803C333CE33CED8E1
:10020100F92406F974003EFA9002297401F0A3EA78
:10021100F0A3E9020328900222E0FEA3E07803C3E1
:1002210033CE33CED8F92406F974003EFA90022970
:100231007401F0A3EAF0A3E9F0A37408F07B017A5A
:1002410002791A120A20900210EFF09001FFE0B437
:100251000335900222E0FEA3E07803C333CE33CE10
:10026100D8F92406F974003EFA90022A7401F0A329
:10027100EAF0A3E9F0900200E0FBA3E0FAA3E0F9C1
:100281007D081209B88033900222E0FEA3E07803D2
:10029100C333CE33CED8F92406F974003EFA900266
:1002A1002A7401F0A3EAF0A3E9F0900200E0FBA3B5
:1002B100E0FAA3E0F97D081209EC900210EFF0E4F6
:1002C100900224F0A3F0900225E0FF900223E07554
:1002D100F008A42FF582E435F0F583E5822406F5D4
:1002E10082E5833400F583C083C082E0FE74122F5F
:1002F100F582E43402F583E0FFEE6FD082D083F023
:10030100900225E004F07006900224E004F09002CF
:1003110024E07004A3E0640870AC9002297401F039
:10032100A37402F0A3741AF0A37408F07B017A029B
:100331007912120A20900210EFF0900223E004F0EB
:100341007006900222E004F00200F7900210E0FF34
:10035100600280479002297401F0A37400F0A37435
:1003610006F0900211E090022CF090020AE0FBA34B
:10037100E0FAA3E0F9120A20900210EFF06003E026
:1003810080197B017A00790690022A74F8F0E4FD65
:10039100120A56900210EFF0600AE09000FEF07E23
:1003A100007F8022900211E0FF90020DE0FBA3E0AC
:0B03B100FAA3E0F9EF120860E4FEFF81
:0103BC00221E
:1003BD00E49001F9F0A3F0A3F078087C00FD7BFF39
:1003CD007A0A7946FE7F101207F49001FCE4F0A33F
:1003DD00F0A3F0900000E0FBA3E0FAA3E0F912080F
:1003ED001AFFB4080040030205269003FEF82828E2
:1003FD007302041602041602047D02047D02041623
:10040D0002041602047D02047D9001FB74F8F09045
:10041D000000E0FBA3E0FAA3E02402F9E43AFA902D
:10042D000203EBF0A3EAF0A3E9F0900000A3E0FAD9
:10043D00A3E0F9900001120833900206F09000033A
:10044D00E0FBA3E0FAA3E02402F9E43AFA900207F4
:10045D00EBF0A3EAF0A3E9F0A37401F0A37401F0AB
:10046D00A374FBF07B007A0079081205A202051C2B
:10047D00900000E0FBA3E0FAA3E02402F9E43AFACD
:10048D009001FCEBF0A3EAF0A3E9F09001FB74F806
:10049D00F0900000A3E0FAA3E0F912081AFF900112
:1004AD00FCE0F9A3E0FAA3E0900203C9F0A3EAF09F
:1004BD00A3E9F09001FCE0FBA3A3E02409F9E43AE1
:1004CD00FA900206EBF0A3EAF0A3E9F09001FCA389
:1004DD00E0FAA3E0F9900008120833900209F090B9
:1004ED000003E0FBA3E0FAA3E02402F9E43AFA905A
:1004FD00020AEBF0A3EAF0A3E9F0A37401F0A374F0
:10050D0001F0A374FBF07B007A00790812000390D0
:10051D0001F9EEF0A3EFF080127B007A007900E490
:10052D00900203F0A3F07F811208949001F9E0FE90
:10053D00A3E0FF4E602AEF64804E700F7B017A00BE
:10054D0079FE900203E4F0A30480119001FAE0FF1C
:10055D007B007A007900E4900203F0A3F012089476
:10056D00900003E0FBA3E0FAA3E0F9E41208609029
:10057D0001FBE0FF900003E0FBA3E0FAA3E0F9909C
:10058D000001EF1208729000011208332402FF12CD
:05059D000A65020A617D
:1009B800900229EDF012FF88900229E0FFA3E0FBE6
:0A09C800A3E0FAA3E0F912FF0C22ED
:1009D200900229EDF012FF88900229E0FFA3E0FBCC
:0A09E200A3E0FAA3E0F912FF0A22D5
:1009EC00900229EDF012FF88900229E0FFA3E0FBB2
:0A09FC00A3E0FAA3E0F912FF1022B5
:100A0600900229EDF012FF88900229E0FFA3E0FB97
:0A0A1600A3E0FAA3E0F912FF0E229C
:100A200012FF88900229E0FBA3E0FAA3E0F9A3E01B
:050A3000FD12FF74221D
:0B0A5600AF0590022AE0FD12FF78229D
:040A610012FF00225E
:040A650012FF022258
:100938000203BDE493A3F8E493A34003F68001F215
:1009480008DFF48029E493A3F85407240CC8C333C0
:10095800C4540F4420C8834004F456800146F6DF8F
:10096800E4800B0102040810204080900A35E47EE0
:10097800019360BCA3FF543F30E509541FFEE49384
:10098800A360010ECF54C025E060A840B8E493A34B
:10099800FAE493A3F8E493A3C8C582C8CAC583CA76
:1009A800F0A3C8C582C8CAC583CADFE9DEE780BE2E
:010A450000B0
:10072400E709F608DFFA8046E709F208DFFA803EB7
:1007340088828C83E709F0A3DFFA8032E309F608A4
:10074400DFFA8078E309F208DFFA807088828C830C
:10075400E309F0A3DFFA806489828A83E0A3F608C0
:10076400DFFA805889828A83E0A3F208DFFA804C9A
:1007740080D280FA80C680D4806980F28033801071
:1007840080A680EA809A80A880DA80E280CA8033DA
:1007940089828A83ECFAE493A3C8C582C8CCC58352
:1007A400CCF0A3C8C582C8CCC583CCDFE9DEE78022
:1007B4000D89828A83E493A3F608DFF9ECFAA9F0A1
:1007C400EDFB2289828A83ECFAE0A3C8C582C8CCF7
:1007D400C583CCF0A3C8C582C8CCC583CCDFEADE10
:1007E400E880DB89828A83E493A3F208DFF980CC72
:1007F40088F0EF60010E4E60C388F0ED2402B4046B
:100804000050B9F582EB2402B4040050AF23234511
:06081400822390077473BB
:10081A00BB010689828A83E0225002E722BBFE02DC
:09082A00E32289828A83E493220F
:10083300BB010CE58229F582E5833AF583E022507A
:1008430006E92582F8E622BBFE06E92582F8E222C4
:0D085300E58229F582E5833AF583E49322DE
:10086000BB010689828A83F0225002F722BBFE0177
:02087000F32271
:10087200F8BB010DE58229F582E5833AF583E8F0BC
:10088200225006E92582C8F622BBFE05E92582C868
:02089200F22250
:00000001FF
